:100000000C9486000C9465020C94A1000C94A10041
:100010000C94A1000C94A1000C94A1000C94A100DC
:100020000C94A1000C94A1000C94A1000C94A100CC
:100030000C94A1000C94A1000C94A1000C94A100BC
:100040000C94A1000C94A1000C94A1000C94A100AC
:100050000C94A100040309042203770077007700C1
:100060002E00630072007900700074006F006D0054
:10007000790073002E00640065001A0341005600E9
:1000800052002D004D004900440049002D0044005D
:10009000420047001201100100000008C016E405EC
:1000A000010001020001090265000201008032091D
:1000B0000400000001010000092401000109000101
:1000C00001090401000201030000072401000141AD
:1000D0000006240201010006240202020009240392
:1000E00001030102010009240302040101010009C6
:1000F00005010308000A0000052501010109058129
:100100000308000A000005250101030011241FBE99
:10011000CFE5D4E0DEBFCDBF10E0A0E6B0E0EEE179
:10012000FAE002C005900D92A437B107D9F710E0AC
:10013000A4E7B0E001C01D92AB3AB107E1F70C941F
:1001400049040C9400001F93DC01162F809162007B
:100150008E3129F18091620084FF07C08091810077
:1001600098E889278093810003C08AE58093620024
:10017000912FE2E8F0E002C08D9181939150E0F779
:10018000612F82E890E00E9461021C5F1093620080
:100190001150412F61E870E081E20E94DC031F9161
:1001A000089585B7836085BF8BB780648BBF8BE470
:1001B0008093810008950F931F93CF93DF93409115
:1001C000910014160CF0E2C0142F135080918E0091
:1001D000C1EAD0E0C81BD10980918D00869583705B
:1001E000412FBE01805F0E94DC0380918D00803131
:1001F00028F4612FCE010E943A04C6C08D3209F066
:10020000A6C03AE530936100183009F0B7C02881E4
:10021000822F807609F087C010927F009981992300
:10022000B9F42F71223051F48C81813839F48091E6
:1002300062008E3119F481E080937F00109280007B
:100240008FE790E09093900080938F0092E013C12D
:10025000953021F48A81809392000CC1963071F51B
:100260008B81813011F0823031F4CE010E94FD0388
:10027000982F20EC5DC0833009F0FFC08A8188236D
:1002800041F484E590E09093900080938F0094E097
:10029000F5C0813041F488E590E090939000809320
:1002A0008F0092E2EBC0823009F0E7C08AE790E06D
:1002B0009093900080938F009AE1E0C0983019F4F9
:1002C00084E990E00AC0993021F48A8180939400F7
:1002D0000FC09A3041F48FE790E0909390008093A4
:1002E0008F0091E0C8C09B3031F48BE48093810093
:1002F00030936200BFC0913019F0933009F0BAC05A
:100300008A81882309F0B6C08C81813809F0B2C097
:10031000913011F48AE501C08EE1809362008BE494
:1003200080938100A7C0CE010E941304982F20E87B
:100330009F3F29F4888187FD9E812F7721C08F817F
:100340008823F1F46E816917D8F4962F19C0809133
:10035000740087FD13C0612FCE010E9433048F3FCC
:1003600031F4809360008EE18093610005C08823A2
:1003700019F090E020E004C09FEFFCCF90E020E86F
:10038000209374009093600010929100809161001E
:1003900084FF5CC0809160008F3F09F457C0682FD4
:1003A000893008F068E0861B8093600080917400BB
:1003B00080FF02C003EC01C00BE48F5F80937400E8
:1003C00087FF1EC0E0918F00F091900086FD04C071
:1003D000962FA7E7B0E00CC0962FA7E7B0E003C0C8
:1003E00084918D9331969150D8F704C081918D936B
:1003F0009150E0F7F0939000E0938F00772709C0C9
:10040000662309F43DC087E790E00E942404682F2A
:100410007727162F693060F487E790E00E94610229
:10042000412F4C5F183040F48FEF8093600004C080
:100430008FEF809360004EE100937600409361005F
:10044000415066E770E080E20E94DC039AE080B3EE
:100450008C70E9F49150D9F71092920010928C00B0
:100460008AE58093620040E060E070E08FEF0E94D8
:10047000DC030DC090E020E862CF90E020EC5FCF7D
:1004800060E087E790E00E94610244E0CDCFDF9119
:10049000CF911F910F910895A82FB92F80E090E080
:1004A00041E050EA60956F5F58F42D9138EF822754
:1004B0009795879510F0842795273F5FC8F3F3CF72
:1004C0000895EADF8D939D930895CF93CFB7CF938F
:1004D000839BFECF839B09C0839B07C0839B05C082
:1004E000839B03C0839B01C0A6C0DF93C0918E0095
:1004F000DD27CB56DF4F839B02C0DF91EBCF2F93DD
:100500000F931F9300B32FEF03FB20F94F933F93FB
:1005100010B34FEF012703FB21F93BE031C04E7FC1
:10052000012F10B3216028C0102F4D7F22600000E2
:1005300000B329C04B7F2460012F000010B32BC0F3
:1005400010B3477F28602AC04F7E00B320612CC0C3
:100550004F7D10B320622FC04F7B00B3206432C0A8
:10056000422700B349934FEF0000102713FB20F9F7
:1005700010B31C70C9F1297F91F2012703FB21F907
:1005800000B3237F89F2315058F1102713FB22F971
:1005900010B3277E79F2012703FB23F92F7C81F228
:1005A00000B3102713FB24F92F7971F200C010B3A8
:1005B000012703FB25F92F7359F200C000B3102760
:1005C00013FB26F9223040F200C010B3012703FBD1
:1005D00027F9243028F64F77206810B30000F9CFB0
:1005E00010E41ABF00271CC03B503195C31BD040FC
:1005F00010E41ABF0881033C11F10B3401F1209182
:100600008C001981110F1213EDCF4A81441F093656
:1006100059F10D3211F0013E29F74F7009F0042F06
:10062000009393003F914F911F910F912F91DF9174
:10063000CAB7C6FD4DCFCF91CFBFCF9118950091CE
:100640009300002379F3109191001123A1F5343028
:10065000A2F13093910000938D0010918E003BE049
:10066000311B30938E0029C00091910001301CF5A0
:100670000AE54F7049F43091610034FD20C00093C9
:100680006100C6E7D0E01FC03091620034FD17C0A2
:1006900000936200C1E8D0E016C0052710E002BB5D
:1006A0001FC0052722C0052727C005272CC0052706
:1006B00010E002BB33C04AE503C042ED01C0432F46
:1006C000C4E1D0E032E011B31C60939A02B311BBD5
:1006D0005F935CE020E820FF052702BB2795179574
:1006E0001C3FD8F620FF0527279502BB17951C3F16
:1006F000C0F620FF05272795179502BB1C3F98F6EB
:1007000020FF0527279517951C3F02BB70F600C0F8
:10071000499120FF052702BB279517951C3F38F606
:1007200020FF0527279502BB17951C3F38F520FFB2
:1007300005272795179502BB1C3F10F520FF0527BD
:10074000279517951C3F02BBE8F4242F3A9519F61C
:10075000037F5F9102BB10919200110FC651D040F0
:1007600011F010938C0010E41ABF086011B3137FCE
:10077000402F437F02BB11BB42BB54CF0527D3CFD1
:100780000527D8CF0527DDCF8F708A3008F0895D27
:10079000805D992708951F93182F82958F700E946E
:1007A000C4035D9BFECF8CB9812F0E94C4035D9B67
:1007B000FECF8CB91F9108951F93CF93DF93EB0168
:1007C000142F0E94CB035D9BFECF8AE38CB907C038
:1007D0005D9BFECF80E28CB989910E94CB031150C2
:1007E000B8F75D9BFECF8DE08CB95D9BFECF8AE0B4
:1007F0008CB9DF91CF911F910895FC0183818130E5
:1008000049F484E990E09093900080938F0082E116
:1008100090E0089586EA90E09093900080938F0096
:1008200085E690E00895FC0185B391E0892785BBBA
:10083000E0818E2F8076803221F4E7FD02C0909314
:1008400075008FEF90E00895FC0185B392E0892751
:1008500085BB108211821282138214821582168245
:1008600087E090E0089585B394E0892785BB81E017
:1008700090E0089585B390E2892785BB089587703D
:1008800087B987B187B9369A3699FECF84B195B1C9
:100890000895C7E4D4E0DEBFCDBFDE011996E3E6DC
:1008A000F0E080E101900D928150E1F788E190E065
:1008B0002EE00FB6F894A89581BD0FBE21BD83EF41
:1008C00082BB11BA8C9894989EEF8FEF9150F1F7FC
:1008D0008150E1F78C9A949A86E886B98FEF88BBAD
:1008E00017BA85BB84BB539A86E289B90E94D100AE
:1008F00010927500789406E0FF245EC0945C892F06
:10090000992718C006E0A8950E94DB0036B390E056
:1009100021E0963011F495E003C09D3009F49CE08D
:10092000832F822359F39E5F9E3010F4220FF1CF64
:1009300080E090E0182FF81611F021E0E22E80916F
:10094000620084FFE0CFEE20C9F185B390E48927EF
:1009500085BBFF2011F460E007C088E0898380E850
:100960008A83FB821C8264E01123C9F0DE011196A8
:10097000FD01E60FF11D89E08083862F8F5FFD0169
:10098000E80FF11D90E990838F5FFD01E80FF11DE5
:1009900010838F5FA80FB11D9FE79C936C5F683039
:1009A00021F481E08093750002C010927500CE01A1
:1009B00001960E94A300F12EEE24A5CF802F0E9465
:1009C0003F049C01E02FFF27EE0FFF1FAE014F5F9A
:1009D0005F4FE40FF51F80859185821B930B07966F
:1009E0000F97C0F085B3805885BB318720878BE097
:1009F000898380EB8A830A5B0B83065483E03595F9
:100A000027958A95E1F72C831092750064E0CA015E
:0E0A10000E94A3000F5F077009F474CF74CF2B
:100A1E00FF5A5AFFFFFFFFFFFFFFFFFFFFFFFFFF22
:040A2E00FFFFFF00C7
:00000001FF
