:100000000C9490000C9478020C94AD000C94AD000C
:100010000C94AD000C94AD000C94AD000C94AD00AC
:100020000C94AD000C94AD000C94AD000C94AD009C
:100030000C94AD000C94AD000C94AD000C94AD008C
:100040000C94AD000C94AD000C94AD000C94AD007C
:100050000C94AD000C94AD000C94AD000C94AD006C
:100060000C94AD000C94AD00040309042203770046
:10007000770077002E006300720079007000740032
:100080006F006D00790073002E00640065001A0394
:100090004100560052002D004D0049004400490027
:1000A0002D0044004200470012011001000000082A
:1000B000C016E40501000102000109026500020109
:1000C0000080320904000000010100000924010041
:1000D00001090001010904010002010300000724D5
:1000E000010001410006240201010006240202026F
:1000F0000009240301030102010009240302040191
:100100000101000905010308000A0000052501019D
:10011000010905810308000A00000525010103000B
:1001200011241FBECFEFD4E0DEBFCDBF11E0A0E0B1
:10013000B1E0E2EFFAE002C005900D92A431B10700
:10014000D9F711E0A4E1B1E001C01D92AB34B107D1
:10015000E1F70E9481040C9477050C940000E9E615
:10016000F0E0808183608083E89A8BE480932101B2
:1001700008951F93DC01162F809102018E3131F119
:100180008091020184FF0AC08091210198E88927AB
:1001900080932101912FE2E2F1E007C08AE580938C
:1001A0000201F8CF8D91819391509923D9F782E282
:1001B00091E0612F0E9474021C5F109302011150A4
:1001C00081E261E271E0412F0E94D7031F910895FF
:1001D0000F931F93CF93DF934091310114160CF0CE
:1001E000E9C080912E01CCE0D0E0C81BD109CB5CE6
:1001F000DE4F142F135080912D0186958370805F00
:10020000BE01412F0E94D70380912D01803128F437
:10021000CE01612F0E946604CBC08D3209F0ABC0C5
:100220008AE580930101183009F0BAC02881822F35
:10023000807609F08DC010921F0199819923C1F435
:100240002F71223051F48C81813839F48091020170
:100250008E3119F481E080931F01109220018FE10B
:1002600091E09093300180932F0120E892E07CC0D0
:10027000953021F48A818093320117C1963089F537
:100280008B81813011F0823031F4CE010E942E0436
:10029000982F20EC62C0833009F009C18A8188233D
:1002A00049F488E690E09093300180932F0120EC90
:1002B00094E05AC0813049F48CE690E0909330018C
:1002C00080932F0120EC92E24FC0823009F0EFC002
:1002D0008EE890E09093300180932F0120EC9AE11A
:1002E00043C0983019F484E391E00AC0993021F4B6
:1002F0008A818093340110C09A3049F48FE191E0F3
:100300009093300180932F0120E891E02DC09B3025
:1003100039F48BE4809321018AE580930201C5C002
:10032000913019F0933009F0C0C08A81882309F018
:10033000BCC08C81813809F0B8C0913011F08EE1D9
:1003400001C08AE5809302018BE480932101ADC056
:10035000CE010E944204982F20E89F3F29F4888113
:1003600087FD9E812F771FC08F818823E1F46E81E6
:100370006917D0F018C08091140187FD11C0CE011B
:10038000612F0E9460048F3F21F48EE18093010170
:1003900004C0882311F020E004C020E06FEF04C007
:1003A00020E860E001C0692F2093140160930001F0
:1003B000109231018091010184FF63C0809100019E
:1003C0008F3F09F45EC0182F893008F018E0811BB8
:1003D000809300018091140180FD02C00BE401C0F4
:1003E00003EC8F5F8093140187FF26C020912F01BB
:1003F0003091300186FD05C0D901912FE7E1F1E090
:1004000011C0A7E1B1E080E090E006C0F901E80F7B
:10041000F91FE491ED9301961817C1F705C08D916E
:10042000819391509923D9F7F901E10FF11DF093D0
:100430003001E0932F010AC0112341F087E191E0E0
:10044000612F0E945204182F893068F487E191E0EF
:10045000612F0E947402412F4C5F183041F08FEFE2
:100460008093000104C08FEF809300014EE1009360
:10047000160140930101415080E266E171E00E9463
:10048000D7039AE089B18C70A9F49150D9F71092F2
:10049000320110922C018AE5809302018FEF60E017
:1004A00070E040E00E94D70305C020E801C020ECC6
:1004B00090E05ACFDF91CF911F910F910895A82F0F
:1004C000B92F80E090E041E050EA60956F5F58F40A
:1004D0002D9138EF82279795879510F084279527DF
:1004E0003F5FC8F3F3CF0895EADF8D939D9308959E
:1004F000CF93CFB7CF934B9BFECF4B9B09C04B9B6A
:1005000007C04B9B05C04B9B03C04B9B01C0A6C0C3
:10051000DF93C0912E01DD27CB5CDE4F4B9B02C0E9
:10052000DF91EBCF2F930F931F9309B12FEF03FBB5
:1005300020F94F933F9319B14FEF012703FB21F9A6
:100540003BE031C04E7F012F19B1216028C0102F30
:100550004D7F2260000009B129C04B7F2460012F2C
:10056000000019B12BC019B1477F28602AC04F7E07
:1005700009B120612CC04F7D19B120622FC04F7B83
:1005800009B1206432C0422709B149934FEF0000FE
:10059000102713FB20F919B11C70C9F1297F91F2C2
:1005A000012703FB21F909B1237F89F2315058F16A
:1005B000102713FB22F919B1277E79F2012703FBDB
:1005C00023F92F7C81F209B1102713FB24F92F792D
:1005D00071F200C019B1012703FB25F92F7359F2FD
:1005E00000C009B1102713FB26F9223040F200C0E9
:1005F00019B1012703FB27F9243028F64F7720682B
:1006000019B10000F9CF11E01CBB00271CC03B5002
:100610003195C31BD04011E01CBB0881033C11F194
:100620000B3401F120912C011981110F1213EDCF20
:100630004A81441F093659F10D3211F0013E29F764
:100640004F7009F0042F009333013F914F911F9198
:100650000F912F91DF91CCB3C0FD4DCFCF91CFBF84
:10066000CF91189500913301002379F31091310156
:100670001123A1F53430A2F13093310100932D0103
:1006800010912E013BE0311B30932E0129C00091C7
:10069000310101301CF50AE54F7049F43091010138
:1006A00034FD20C000930101C6E1D1E01FC03091AC
:1006B000020134FD17C000930201C1E2D1E016C06F
:1006C000052710E00BB91FC0052722C0052727C04A
:1006D00005272CC0052710E00BB933C04AE503C03D
:1006E00042ED01C0432FC4E1D0E032E01AB11C60FA
:1006F0005B9A0BB11AB95F935CE020E820FF0527F5
:100700000BB9279517951C3FD8F620FF052727958D
:100710000BB917951C3FC0F620FF052727951795A5
:100720000BB91C3F98F620FF0527279517951C3F0E
:100730000BB970F600C0499120FF05270BB927952A
:1007400017951C3F38F620FF052727950BB91795FD
:100750001C3F38F520FF0527279517950BB91C3F3F
:1007600010F520FF0527279517951C3F0BB9E8F4D6
:10077000242F3A9519F6037F5F910BB9109132013E
:10078000110FC651D04011F010932C0111E01CBB89
:1007900008601AB1137F402F437F0BB91AB94BB9C8
:1007A00054CF0527D3CF0527D8CF0527DDCF282F56
:1007B000FB01982F92959F709A3008F0995D809177
:1007C000C00085FFFCCF905D9093C600922F9F7074
:1007D0009A3008F0995D8091C00085FFFCCF905D54
:1007E0009093C6008091C00085FFFCCF8AE3809380
:1007F000C60030E222C08091C00085FFFCCF30935C
:10080000C6002081922F92959F709A3008F0995DD2
:100810008091C00085FFFCCF905D9093C600922F21
:100820009F709A3008F0995D8091C00085FFFCCFE1
:100830003196905D9093C60041504423E1F680913B
:10084000C00085FFFCCF8DE08093C6008091C00082
:1008500085FFFCCF8AE08093C6000895FC01838168
:10086000813041F488EA90E09093300180932F0129
:1008700082E108958AEB90E09093300180932F01FC
:1008800085E60895FC0188B191E0892788B9E08167
:100890008E2F8076803221F4E7FD02C090931501FF
:1008A0008FEF0895FC0188B192E0892788B9108202
:1008B00011821282138214821582168287E00895B3
:1008C00088B194E0892788B981E0089588B190E2E1
:1008D000892788B90895877080937C0080917C0077
:1008E00080937C0080917A00806480937A0080916C
:1008F0007A0086FDFCCF2091780030917900C90103
:1009000008953F924F925F926F927F928F929F9243
:10091000AF92BF92CF92DF92EF92FF920F931F930D
:10092000DF93CF93CDB7DEB768970FB6F894DEBFED
:100930000FBECDBFDE011996E3E0F1E080E101904A
:100940000D928150E1F72EE088E190E00FB6F89427
:10095000A895809360000FBE2093600083EF8BB951
:100960001AB854985C98549A5C9A86E880937A00F6
:100970008FEF85B914B888B987B98091C1008860B4
:100980008093C10083E390E09093C5008093C400FE
:100990000E94AF00109215017894DD24CC2416E05B
:1009A000332433947E010894E11CF11CFBE04F2EAC
:1009B000E0EB5E2E70E4672E69E0862E50E9752E1E
:1009C0004FE7942E38E0A32E20E8B22EA8950E947F
:1009D000E80033B190E021E0963011F495E003C0D7
:1009E0009D3009F49CE0822F832319F4092F045CC5
:1009F00006C09E5F9E3010F4220FEECF00E0D016AE
:100A000011F0CC24C3948091020184FFDFCFCC206D
:100A100081F188B1862588B9DD2011F460E005C038
:100A2000A982BA82DB821C8264E00023D1F0F70144
:100A3000E60FF11D8082862F8F5FF701E80FF11D11
:100A400070828F5FF701E80FF11D00838F5FF70160
:100A5000E80FF11D90826C5F683019F43092150137
:100A600002C010921501C7010E94B900D02ECC24FB
:100A7000ADCF812F877080937C0080917C00809324
:100A80007C0080917A00806480937A0080917A0063
:100A900086FDFCCF2091780030917900E12FF0E0C5
:100AA000EE0FFF1FEE0DFF1D80859185821B930BBE
:100AB00007960F97B0F088B1805888B931872087A2
:100AC00049825A821A5B1B83165483E03595279519
:100AD0008A95E1F72C8310921501C70164E00E940A
:100AE000B9001F5F177009F071CF16E06FCFF8944F
:020AF000FFCF36
:100AF200FF5A5AFFFFFFFFFFFFFFFFFFFFFFFFFF4E
:040B0200FFFFFF00F2
:00000001FF
